:020000040800F2
:10000000A0540020F5020008132800084F23000820
:100010001128000855070008C12D00080000000045
:100020000000000000000000000000003502000891
:10003000E9070008000000009102000815280008E8
:100040000F0300080F0300080F0300080F03000848
:100050000F0300080F0300080F0300080F03000838
:100060000F0300080F0300080F0300080F03000828
:100070000F0300080F0300080F0300080F03000818
:100080000F0300080F03000821060008000000000D
:100090000000000000000000000000000F03000846
:1000A000D12800080F0300080F0300080F03000801
:1000B0000F0300080F0300080F0300080F030008D8
:1000C0000F0300080F0300080F0300080F030008C8
:1000D0000F030008B52D00080F0300080000000002
:1000E0000F0300080F0300080F03000800000000C2
:1000F0000000000000000000000000000F030008E6
:10010000000000000F0300080F0300080F030008A1
:1001100000000000000000000000000000000000DF
:100120000F0300080F0300080F0300080F03000867
:100130000F030008000000000000000000000000A5
:100140000000000000000000000000000F03000895
:100150000F0300080F0300080F0300080F03000837
:100160000F0300080F03000800000000000000005B
:10017000000000000000000000000000000000007F
:10018000000000000F030008000000000000000055
:100190000F03000800F002F800F03CF80AA090E815
:1001A000000C82448344AAF10107DA4501D100F032
:1001B00031F8AFF2090EBAE80F0013F0010F18BFC3
:1001C000FB1A43F001031847C4470000E44700004E
:1001D000103A24BF78C878C1FAD8520724BF30C873
:1001E00030C144BF04680C60704700000023002445
:1001F00000250026103A28BF78C1FBD8520728BF37
:1002000030C148BF0B6070471FB504F0A9FB1FBD8C
:1002100010B510BD00F0D2F91146FFF7F5FF02F05E
:10022000C1FE00F0F0F903B4FFF7F2FF03BC02F0E7
:10023000D8FD00002C4B19680868B0E8F04F80F337
:100240000988BFF36F8F4FF0000080F3118870476B
:100250000000000008480068006880F308884FF03C
:10026000000080F3148862B661B6BFF34F8FBFF30E
:100270006F8F00DF00BF00BF08ED00E0DFF80C006B
:10028000016841F470010160704700BF88ED00E033
:10029000EFF30980BFF36F8F134B1A681EF0100F36
:1002A00008BF20ED108A20E9F04F106009B44FF02C
:1002B000500080F31188BFF34F8FBFF36F8F03F0AF
:1002C00021FE4FF0000080F3118809BC196808680E
:1002D000B0E8F04F1EF0100F08BFB0EC108A80F3AA
:1002E0000988BFF36F8F704738000020EFF3058057
:1002F000704700000948804709480047FEE7FEE7CD
:10030000FEE7FEE7FEE7FEE7FEE7FEE7FEE7FEE7C5
:1003100004480549054A064B70470000C1280008FB
:1003200095010008A04E0020A0540020A0500020FD
:10033000A0500020704753EA020C00F069802DE9BC
:10034000F04B4FF00006002B1FBFB3FA83F503FA02
:1003500005F424FA05F65E4012BF1643B2FA82F5A0
:1003600002FA05F4C5F120051EBF22FA05FC44EA95
:100370000C04203556EA044C4FEA144418BF641CA0
:100380004FF000084FF00009904271EB030C39D395
:10039000002919BFB1FA81F701FA07F6B0FA80F720
:1003A00000FA07F6C7F120071EBF20FA07FC46EA4D
:1003B0000C062037B6FBF4FCA7EB0507103F07F04F
:1003C0001F0BCBF120060CFA0BFB2CFA06F644BFF0
:1003D000B3460026202FA4BF5E464FF0000B5BEA19
:1003E000060C08BF4FF0010B19EB0B09ABFB027CAD
:1003F00048EB0608C01B06FB02CC0BFB03CC71EBE1
:100400000C01C1E70B46024641464846BDE8F08B69
:1004100013B54FF000004FF00001AFF30080BDE8CE
:100420001C407047032A40F2308010F0030C00F0AB
:10043000158011F8013BBCF1020F624498BF11F81E
:1004400001CB00F8013B38BF11F8013BA2F10402D7
:1004500098BF00F801CB38BF00F8013B11F003034F
:1004600000F05880083AC0F0088051F8043B083A80
:1004700051F804CBA0E80810F5E7121D5CBF51F855
:10048000043B40F8043BAFF30080D20724BF11F8CF
:10049000013B11F801CB48BF11F8012B24BF00F834
:1004A000013B00F801CB48BF00F8012B704702F078
:1004B000FF0343EA032242EA024200F05FB84FF032
:1004C000000200B5134694469646203922BFA0E8A4
:1004D0000C50A0E80C50B1F12001BFF4F7AF0907B0
:1004E00028BFA0E80C5048BF0CC05DF804EB8900A1
:1004F00028BF40F8042B08BF704748BF20F8022BE4
:1005000011F0804F18BF00F8012B704770477047FB
:100510007047704710B5203AC0F00B80B1E8185012
:10052000203AA0E81850B1E81850A0E81850BFF4DD
:10053000F5AF5FEA027C24BFB1E81850A0E818507C
:1005400044BF18C918C0BDE810405FEA827C24BFD0
:1005500051F8043B40F8043B08BF7047D20728BF5E
:1005600031F8023B48BF11F8012B28BF20F8023BAD
:1005700048BF00F8012B70474FF000020429C0F07B
:10058000128010F0030C3FF49CAFCCF1040CBCF1D2
:10059000020F18BF00F8012BA8BF20F8022BA1EB17
:1005A0000C01FFF78EBF5FEAC17C24BF00F8012B6E
:1005B00000F8012B48BF00F8012B7047754600F08A
:1005C0002BF8AE4605006946534620F007008546E5
:1005D00018B020B5FFF79CFEBDE820404FF00006A4
:1005E0004FF000074FF000084FF0000B21F007011B
:1005F000AC46ACE8C009ACE8C009ACE8C009ACE85E
:10060000C0098D46704710B50446AFF30080204600
:10061000BDE81040FFF707BE00487047404E00207D
:10062000014800F0A9B9000008020020464910B5B1
:100630004A6822F440324A604A6843681A434A6072
:1006400001684A6822F480724A6001684A68036956
:1006500042EA03224A6001684A6822F040724A6016
:1006600001684A6883681A434A6001688A6822F40C
:1006700000628A6001688A68C3681A438A60816A76
:100680006FF07062D14201688A6822F070628A60FD
:1006900001688A680CD0836A1A438A6001688A6894
:1006A00022F040528A6001688A68C36A1A4301E0F6
:1006B00022F040528A6001688A6822F002028A6051
:1006C00001688A68037E42EA43028A6090F820103B
:1006D000002901684A680FD042F400624A6001684C
:1006E0004A6822F460424A6001684A68174C436ACB
:1006F00004EB43331A4301E022F400624A600168CC
:10070000CA6A22F47002CA620168CA6A838B104CFA
:1007100004EB03531A43CA6201688A6822F4007228
:100720008A6001688A6890F8303042EA43228A6021
:1007300001688A6822F480628A6001688A68406978
:1007400042EA8020886010BD0023014000E0FFFFE6
:100750000000F0FFFEE700000348002102881204B9
:10076000FCD50180FAE70000200000200168182372
:10077000CAB2103AB2FBF3F2054B6FF30901032A38
:100780009B5CC36500D9091D816508467047000060
:100790006A49000810B5014600208B698A6A4FF04B
:1007A000C07453B1B3F5005F15D072B1012A0CD0FB
:1007B000022A0AD0032A09D104E01AB1012A06D07C
:1007C000022A03D1C96AC90100D5012010BDC96A36
:1007D000A142FAD010BD002AF7D0012AF2D0022A95
:1007E000F3D0032AF3D010BD704772B6FEE770470E
:1007F00078B50024009490F83C20012A19D00122F9
:1008000080F83C200A6807230568092A13D9EE6896
:100810000A3A02EB420293409E43EE600B788A68EC
:100820000A3B03EB43039A400368DD682A43DA601E
:1008300010E0022078BD2E6902EB420293409E43F5
:100840002E610B788A6803EB43039A4003681D69A5
:100850002A431A614A681F23072A13D205686E6B60
:10086000521E02EB820293409E436E630B790A880C
:100870005B1E92B203EB83039A4003685D6B2A43CD
:100880005A6327E005680D2A12D22E6BD21F02EBA5
:10089000820293409E432E630B790A88DB1F92B23B
:1008A00003EB83039A4003681D6B2A431A6311E02C
:1008B000EE6A0D3A02EB820293409E43EE620B79A0
:1008C0000A880D3B92B203EB83039A400368DD6A0A
:1008D0002A43DA62164B0568144A9D4206D10D6818
:1008E000122D03D1556845F48005556005689D4279
:1008F00018D10B68102B01D0112B13D1536843F47E
:1009000000035360096810290CD10A490A4A096892
:10091000B1FBF2F101EB8101490000E0491E0091B9
:100920000029FBD180F83C40002078BD0023014025
:10093000002001403400002040420F0010B5006844
:10094000084988420CD1084800F013F8074C208071
:10095000054800F00EF86080034800F00AF8A08017
:1009600010BD0000002001400802002018000020F7
:1009700070470068C06C704770B504460068066830
:10098000456816F0020F05F020012AD049B3216C0A
:10099000C90603D4216C41F400712164816811F00F
:1009A000405F17D1217EA9B9C16A11F4700F02D03E
:1009B000816849050ED4416821F020014160206C16
:1009C00020F480702064206CC00403D4206C40F0BC
:1009D000010020642046FFF7B1FF21686FF012008C
:1009E000086016F0040F05F0800132D089B3206C46
:1009F000C00603D4206C40F4005020642068816855
:100A000011F4401F1ED1816B11F4401F02D0816888
:100A1000490517D44168490514D4816811F0405F35
:100A200010D1217E71B9416821F080014160206CB4
:100A300020F480502064206CC00503D4206C40F06A
:100A4000010020642046FFF7D2FE21686FF00C0001
:100A5000086016F0010F05F040010FD071B1206859
:100A60000068C0070AD0206C40F480302064204623
:100A700000F043F821686FF00100086016F0200FC5
:100A800005F080610ED000290CD0606C40F00200AF
:100A9000606420686FF0200505602046FFF768FF5E
:100AA0002068056070BD70B504004FF0000503D0EC
:100AB000206C002610B107E0012070BD204600F038
:100AC0001DF8666484F83C60206CC00610D4206C6D
:100AD00020F4885040F0020020642046FFF7A6FD75
:100AE0006664206C20F0020040F00100206400E009
:100AF000012584F83C60284670BD704730B587B04A
:100B0000044614216846FFF7DAFC1D492068884234
:100B100034D11C480024016841F4807101600068F0
:100B200000F48070059017481438016841F0010105
:100B30000160016801F001010591016841F00201C5
:100B400001600068032500F0020005903020CDE927
:100B50000005694602940C4800F010F90120CDE927
:100B6000000569460294094800F008F900220521B1
:100B7000122000F091FA122000F080FA07B030BD88
:100B800000200140443802400000024000040240BE
:100B90002DE9F0410446876D00F0E6F9064694F829
:100BA00035000025022806D08020606584F8345086
:100BB0000120BDE8F0812068016821F01601016084
:100BC0002068416921F080014161206C08B9A06C66
:100BD00020B12068016821F00801016020680168E7
:100BE00021F0010101600CE000F0BEF9801B052836
:100BF00007D920206065032084F8350084F834503C
:100C0000D7E720680068C007EED194F85C103F2059
:100C10008840B860012084F8350084F83450002002
:100C2000C7E790F83510022903D0802141650120E3
:100C30007047052180F835100068016821F0010136
:100C400001600020704770B504002BD094F8350087
:100C5000022826D02068016821F001010160206887
:100C60000025056020684560206885602068C560B3
:100C7000206805612168212048612046FFF776FD44
:100C8000E56325646564A564E564256594F85C20E6
:100C90003F2191408160656584F8355084F8345077
:100CA000002070BD012070BD2DE9F041044600F028
:100CB0005BF906465CB1022084F83500002584F813
:100CC00034502068016821F0010101600DE001202D
:100CD000BDE8F08100F048F9801B052805D92020E7
:100CE0006065032084F83500F2E720680068C007DB
:100CF000F0D12268116820480140D4E9010318436B
:100D0000D4E903363343184363691843A36918438E
:100D1000E3691843236A18430843616A042903D12D
:100D2000D4E90B1319430843106020684069666AD0
:100D300020F0070130460E43012704280CD1A06A99
:100D40000643E06A40B12046FFF724FD20B1402071
:100D5000606584F83570BAE7206846612046FFF781
:100D600005FD94F85C203F2191408160656584F821
:100D700035700020ACE700003F8010F02DE9F84FFF
:100D8000DFF8B8A10022012403254FF00F090AF172
:100D9000040BAAF1040E00BF0B6804FA02F63340FC
:100DA000B34273D10F7907F00307012F01D0022F4F
:100DB00016D187684FEA420805FA08FC27EA0C07B3
:100DC000D1F80CC00CFA08FC4CEA070CC0F808C0BB
:100DD0004768B7430E79C6F3001696403E43466017
:100DE0000E79F643B6070DD0C768560005FA06FC23
:100DF00027EA0C07D1F808C00CFA06FC4CEA070CED
:100E0000C0F80CC00E7906F00306022E10D1D608E9
:100E100000EB8608D8F8206057074FEAD76C09FA2C
:100E20000CF7BE430F6907FA0CF73743C8F8207078
:100E300006684FEA420C05FA0CF7BE430F7907F03B
:100E4000030707FA0CF7374307604E6816F4403F74
:100E50006DD03B4E376847F480473760366822F0E4
:100E6000030706F480460096364E07EB060CDCF8C6
:100E7000086897073F0F09FA07F826EA0806DFF81F
:100E8000C880404503D14FF000081EE04FE0DFF876
:100E9000BC80404502D14FF0010816E0DFF8B08079
:100EA000404502D14FF002080FE0DFF8A88040452E
:100EB00002D14FF0030808E0DFF89C80404502D1E2
:100EC0004FF0040801E04FF0070808FA07F848EA75
:100ED0000608CCF80888DAF800605746D1F804C054
:100EE0009E435FEACC2C00D51E433E60DBF80060D9
:100EF0005F46D1F804C09E435FEA8C2C00D51E43A8
:100F00003E60DEF800607746D1F804C09E435FEA99
:100F10008C3C00D51E433E60084F083F3E68D1F828
:100F200004C09E435FEACC3C00D51E433E60521C89
:100F3000102AFFF431AFBDE8F88F0000083C0140F3
:100F400044380240003001400000024000040240EA
:100F500000080240000C0240001002400AB181610A
:100F600070470904FBE700000148806870470000F3
:100F7000280000200248816802781144816070478F
:100F8000280000200B4810B5016841F40071016091
:100F9000016841F480610160016841F48071016081
:100FA000032000F099F80F2000F006F800F04AF84E
:100FB000002010BD003C024030B505461C4887B0FB
:100FC0000024016841F480310160006806A900F442
:100FD0008030009001A800F02BF900F059F9154974
:100FE000154AB0FBF1F11548491E026040F2E732A4
:100FF000C0E90324C0E90114846100F0B7FB0400D8
:1010000012D10E4800F00AFC04000DD1182000F0A7
:1010100035F8102D07D200222946182000F03CF8A0
:101020000748056000E0012407B0204630BD0000FD
:101030004438024040420F0000400140C4040020F8
:101040002C0000200C4882B0016841F4804101600E
:10105000006800F4804000900748001F016841F0DC
:10106000805101600068002200F0805000900F2144
:10107000901E02B000F010B844380240002809DB8E
:1010800000F01F02012191404009800000F1E020A2
:10109000C0F8001170470000F0B40E4B1B680C46FE
:1010A000C3F30223C3F10705042D00D90425191D3C
:1010B000072901D2002300E0DB1E012606FA05F114
:1010C000491E214099409E40761E16403143F0BC97
:1010D00001F077BE0CED00E0064900F00702086859
:1010E0004FF6FF03184040EA0220034A104308600D
:1010F000704700000CED00E00000FA052DE9F04714
:101100000E46050065D0DFF81481D8F80000F7B26C
:1011100000F00700B04207D288F80070D8F800004D
:1011200000F00700B04254D128683D4C810712D529
:10113000400703D5206840F4E0502060287800077D
:1011400003D5206840F4604020602068A96820F042
:10115000F000084320602878C0072DD03049686827
:101160000839012812D0022813D0032811D00968A9
:10117000890700292DDA216821F00301014321604C
:10118000FFF7F2FE814641F2883A0EE009688903D2
:10119000EFE709688901ECE7FFF7E6FEA0EB09013C
:1011A000514502D90320BDE8F0872068696800F046
:1011B0000C00B0EB810FEFD1D8F80010404601F0E1
:1011C0000701B14207D90770006800F00700B0427C
:1011D00001D00120E7E72878400705D52068E968B5
:1011E00020F4E050084320602878000706D52068E6
:1011F000296920F4604040EAC100206000F058F8FE
:101200002168084AC1F30311515CC84006490860CF
:1012100006480068FFF7D0FE0020C4E7003C02400B
:101220000838024072490008340000202C000020D9
:101230000F2202600C4A136803F003034360136833
:1012400003F0F0038360136803F4E053C360126893
:101250004FF4E05303EAD20202610448006800F050
:10126000070008607047000008380240003C024058
:101270000448054900680968044AC1F38221515CA9
:10128000C8407047340000200838024082490008F6
:101290000448054900680968044AC1F34231515CB9
:1012A000C8407047340000200838024082490008D6
:1012B000154810B5006810F00C02144813D01449FA
:1012C000042A0FD0082A0ED10F4C241F226823684D
:1012D00002F03F025B0207D52068C0F38810A0FB34
:1012E000010106E0084610BD2168C1F38811A1FB89
:1012F00000010023FFF71FF82168C1F30141491CD9
:101300004900B0FBF1F010BD083802400024F400A1
:1013100040787D012DE9F84F04006ED02078DFF889
:101320004C93C007A9F104054AD009F104000168F3
:10133000C1F38101012908D00068C0F381000228AF
:101340000AD1D9F80000400206D52868800337D5B5
:1013500060680028E1D033E06068B0F5803F10D0CD
:10136000B0F5A02F286810D020F4803028602868BD
:1013700020F4802028606068A8B1FFF7F5FD0646DC
:101380000DE0286840F48030F4E740F480202860C5
:10139000F7E700BFFFF7E8FD801B642873D82868D3
:1013A0008003F7D50CE0FFF7DFFD064605E000BF40
:1013B000FFF7DAFD801B6428F0D828688003F7D493
:1013C0002078DFF8AC8280074FF0000A3ED5A748AE
:1013D000001D016811F00C0F08D00068C0F38100F7
:1013E00002280BD1D9F80000400207D428688007F2
:1013F00016D5E068012800D112E033E1E068B8B109
:101400000120C8F80000FFF7AFFD064605E000BF69
:10141000FFF7AAFD801B0228C0D828688007F7D5EF
:101420002868216920F0F80040EAC10028600DE03A
:10143000C8F800A0FFF798FD064604E0FFF794FD0A
:10144000801B02281FD828688007F7D4207800075F
:1014500022D5864F87486169703771B101210160DB
:10146000FFF782FD064604E0FFF77EFD801B0228A1
:1014700009D838688007F7D50EE0C0F800A0FFF75C
:1014800073FD064605E082E0FFF76EFD801B022833
:101490007DD838688007F7D42078400768D5DFF812
:1014A000CCB100270BF13C0BDBF80000C0000BD4E3
:1014B000DBF8001041F08051CBF80010DBF80000A1
:1014C000012700F0805000906B4E3068C00510D4AA
:1014D000306840F480703060FFF746FD009005E012
:1014E000FFF742FD0099401A022850D83068C00525
:1014F000F6D55E4EA0686C3601280FD005283068FE
:1015000010D020F001003060306820F0040030601E
:10151000A068B8B1FFF728FD00900FE0306840F0F8
:101520000100F4E740F004003060F7E7FFF71CFD2E
:101530000099411A41F28830814266D830688007AC
:10154000F4D50EE0FFF710FD009007E0FFF70CFD6B
:101550000099411A41F28830814256D8306880079C
:10156000F4D42FB1DBF8001021F08051CBF800103B
:10157000A069C8B33D49091D0968C1F38101022969
:101580004AD00228504607D0C8F8600000E03CE08E
:10159000FFF7EAFC04463BE04746C8F86000FFF767
:1015A000E3FC064605E000BFFFF7DEFC801B0228D7
:1015B0002BD828688001F7D4D4E907010843A16A31
:1015C0002E4A490802EB0141626A41EA821108434E
:1015D00094F82C1040EA0161C9F800100120386627
:1015E000FFF7C2FC044606E03EE000BFFFF7BCFC8C
:1015F000001B022809D828688001F7D534E000BF15
:10160000FFF7B2FC001B022802D90320BDE8F88FC7
:1016100028688001F4D427E00128F7D0D9F8000029
:10162000E26900F4800191421CD1226A00F03F017E
:10163000914217D147F6C071626A0140B1EB821F37
:1016400010D1A26A4FF0FF3300F4403103EB520295
:10165000B1EB024F06D194F82C1000F07060B0EBA3
:10166000016F01D00120D1E70020CFE7043802400C
:1016700000004742800E4742007000400000FFFF1C
:101680004FF0E0210428086903D020F0040008612D
:10169000704740F00400FAE77047704710B590F8C3
:1016A0003C20012A22D0012280F83C20CA688C68A4
:1016B00022F4407222434C6822F4806222430C6878
:1016C00022F4006222430C6922F4805222434C69C6
:1016D00022F400522243C969002322F480420A43C3
:1016E00001684A6480F83C30002010BD022010BD23
:1016F00070B590F83C20012A2CD0012480F83C40A1
:10170000022280F83D2003685A689D6822F0700626
:101710000A6832435A60104B02689A420ED0B2F106
:10172000804F0BD00D4B9A4208D00D4B9A4205D0FA
:101730000C4B9A4202D00C4B9A4204D1496825F0D6
:1017400080031943916080F83D40002180F83C10EF
:10175000084670BD022070BD00000140000400403A
:1017600000080040000C00400040014010B504009B
:1017700003D094F83D0010B107E0012010BD002017
:1017800084F83C00204600F01FF8022084F83D0059
:10179000211D206801F0AAF8012084F8460084F891
:1017A0003E0084F83F0084F8400084F8410084F84B
:1017B000420084F8430084F8440084F8450084F82B
:1017C0003D00002010BD000008B5006811498842A6
:1017D00012D11148016841F0010101600068002246
:1017E00000F0010000900F211820FFF755FCBDE824
:1017F00008401820FFF742BCB0F1804F09D10648DD
:10180000001F016841F001010160006800F0010063
:10181000009008BD000001404438024090F83D109F
:10182000012901D001207047022180F83D10016894
:10183000CA6842F00102CA6000680E4988420ED0B0
:10184000B0F1804F0BD00C49884208D00B49884238
:1018500005D00B49884202D00A49884204D18168E8
:1018600001F00701062903D0016841F00101016080
:1018700000207047000001400004004000080040C4
:10188000000C00400040014070B5044690F83C0058
:101890000025012817D0012684F83C60022084F836
:1018A0003D002068826822F0770222F47F42826045
:1018B0000868502838D00DDC20284FD005DC90B3C4
:1018C000102811D14AE0022070BD302846D04028AF
:1018D0000AD13BE060282FD070280DD0B0F5805F92
:1018E00003D0B0F5005F12D0012584F83D600020E0
:1018F00084F83C00284670BDCB68D1E901212068FE
:1019000001F04DF82068816841F0770109E0CB686B
:10191000D1E90121206801F042F82068816841F492
:1019200080418160E1E719E0CA684968206801F0F8
:10193000EBF85021206806E0CA684968206801F089
:10194000F4F86021206801F034F8CEE7CA684968ED
:10195000206801F0D9F840212068F4E722680146A8
:101960001046F0E72DE9F0410D46040003D094F84D
:101970003D0018B108E00120BDE8F081002084F8A6
:101980003C00204600F040F8022084F83D0020682A
:10199000816844F2070291438160211D206800F0B4
:1019A000A5FF226890689169166A2B68AF690343A6
:1019B00040F20330814341EA0721A868EF690843F8
:1019C0004FF6FC418843E96840EA07200143286953
:1019D0002F6A000140EA0730084369686D6926F004
:1019E000AA0646EA0515294393602268906154F8D7
:1019F000460B0162012004F81F09E0752076E076AD
:101A00002077A0750020B7E7F0B587B00446142111
:101A10006846FEF754FD2D4A2B4F266800242B49BB
:101A2000103AC02502232A48BE4214D10E6846F05F
:101A300002060E60096801F002010591116841F08B
:101A4000010111601168009501F00101059101216A
:101A5000CDE9013134E01F4FBE421BD1086840F090
:101A600004000860086800F004000590106840F069
:101A70000200106010680095CDE9013400F002000A
:101A8000CDE9043014486946039400BFFFF776F9A6
:101A900007B0F0BD114DAE42FAD10D6845F0080512
:101AA0000D60096801F008010591116841F001011C
:101AB0001160116801F00101059103218DE81A0000
:101AC000CDE903436946E1E70004004040380240A5
:101AD000000002400008004000040240000C0040EA
:101AE00070B590F83E60044690F83F5090F8423050
:101AF00090F84320022021B104290ED0012E1BD1E1
:101B000014E0012E18D1012B16D184F83E0084F880
:101B1000420001220021206820E0012D0CD1012A81
:101B20000AD184F83F0084F8430014E0012D03D16A
:101B3000012B01D1012A01D0012070BD84F83E00A3
:101B400084F83F0084F8420084F843000122002119
:101B5000206800F017FF01220421206800F012FF26
:101B60002068016841F001010160002070BD7047EC
:101B700070B50446006801694FF00005C943890744
:101B800015D4C168C943890711D4E91E0161012038
:101B90002077206880698007204602D0FFF7E7FFA2
:101BA00004E000F0E9F8204600F07BF92577206892
:101BB0000169C943490717D4C168C943490713D408
:101BC0006FF004010161022020772068806910F421
:101BD000407F204602D0FFF7CAFF04E000F0CCF8B7
:101BE000204600F05EF9257720680169C94309079E
:101BF00016D4C168C943090712D46FF00801016106
:101C0000042020772068C0698007204602D0FFF7B3
:101C1000AEFF04E000F0B0F8204600F042F925776E
:101C200020680169C943C90617D4C168C943C906F8
:101C300013D46FF010010161082020772068C0697B
:101C400010F4407F204602D0FFF791FF04E000F03F
:101C500093F8204600F025F9257720680169C943EB
:101C6000C90708D1C168C943C90704D1891E0161E8
:101C7000204600F06FF920680169C943090609D4BC
:101C8000C168C943090605D46FF08001016120468F
:101C9000FFF702FD20680169C943490609D4C168FC
:101CA000C943490605D46FF040010161204600F0A8
:101CB0005BF920680169C94389060BD4C168C9432F
:101CC000890607D46FF0200101612046BDE870400D
:101CD000FFF7E3BC70BD000070B586B00446142168
:101CE0006846FEF7ECFB204B226800241F490225C2
:101CF00001261F489A420ED10A6842F001020A608A
:101D0000096801F0010105914FF410610091CDE9DE
:101D10000154694622E0B2F1804F23D10A6842F0B3
:101D200001020A600A6802F0010205920A6842F0A4
:101D300002020A60096801F00201059148F20C01F3
:101D40000091CDE90154CDE903466946FFF716F845
:101D500008200090CDE9015406486946CDE90346C4
:101D6000FFF70CF806B070BD0000014030380240AB
:101D70000000024000040240704770B5044690F82D
:101D80003C0000260D4601280FD0012084F83C00BD
:101D90006AB1042A1DD0082A2FD00C2A3FD0012670
:101DA000002084F83C00304670BD022070BD2068E1
:101DB00000F008FE2068816941F008018161206817
:101DC000816921F004018161206881692A691143D8
:101DD00011E0206800F01EFE2068816941F4006176
:101DE00081612068816921F4806181612068816955
:101DF0002A6941EA02218161D2E7206800F036FEBB
:101E00002068C16941F00801C1612068C16921F001
:101E10000401C1612068C1692A69114311E0206889
:101E200000F050FE2068C16941F40061C161206882
:101E3000C16921F48061C1612068C1692A6941EAF0
:101E40000221C161ACE710B5040003D094F83D0055
:101E500010B107E0012010BD002084F83C002046AE
:101E600000F01EF8022084F83D00211D206800F0DB
:101E70003DFD012084F8460084F83E0084F83F00D0
:101E800084F8400084F8410084F8420084F843005C
:101E900084F8440084F8450084F83D00002010BD1B
:101EA0007047704710B50446022249B104290ED08C
:101EB000082913D094F84100012816D0012010BD44
:101EC00094F83E000128F9D184F83E200FE094F800
:101ED0003F000128F2D184F83F2008E094F8400048
:101EE0000128EBD184F8402001E084F84120012250
:101EF000206800F047FD12492068884203D1426CF7
:101F000042F400424264206888420ED0B0F1804F13
:101F10000BD00C49884208D00B49884205D00B49A8
:101F2000884202D00A49884204D1816801F0070141
:101F3000062903D0016841F001010160002010BDB5
:101F4000000001400004004000080040000C004078
:101F50000040014000680349884201D1FFF70AB8F8
:101F60007047000000400140704770477047000014
:101F7000F8B5016804460868CA684B6910F00F0F8D
:101F80004FF000055AD003F0010602F49077374372
:101F900065D0C10705D0D10503D5216C41F0010101
:101FA0002164410705D5D90703D0216C41F0020116
:101FB0002164810705D5D90703D0216C41F00401C4
:101FC0002164010707D502F02001314303D0216CC1
:101FD00041F008012164216C00293BD0800604D522
:101FE000900602D5204600F0E1FD20684069216C92
:101FF000C0F3801001F00801014320462BD000F00F
:10200000AEFD20684069400621D52068143050E8B4
:10201000001F21F0400140E80012002AF5D1A06B1A
:10202000A8B16C490165A06BFEF7FBFD002811D03B
:10203000A06B016D01B0BDE8F040084783060ED5E6
:1020400093060CD52046BDE8F84000F0AFBD204611
:10205000FFF78CFFF8BDFFF789FF2564F8BD266BFD
:102060002023012E79D1C60677D5D60675D5086806
:10207000486800904869400640D5A16B08684068F0
:102080000004000CEAD0A28D8242E7D9E085C8693D
:10209000B0F5807F2DD020680C3050E8001F21F46F
:1020A000807140E80012002AF5D12068143050E811
:1020B000001F21F0010140E80012002AF5D120683C
:1020C000143050E8001F21F0400140E80012002ABF
:1020D000F5D184F83E30256320680C3050E8001FAD
:1020E00021F0100140E80012002AF5D1A06BFEF7A4
:1020F0004FFDA08DE18D401A81B229E0A08DE18DC8
:10210000401A81B2E08D0028A8D00029A6D020680E
:102110000C3050E8002F22F4907240E80026002E88
:10212000F5D12068143050E8002F22F0010240E879
:102130000026002EF5D184F83E30256320680C304F
:1021400050E8002F22F0100240E80023002BF5D1C8
:102150002046FFF70AFFF8BDFFE705062BD5150659
:1021600029D594F83D002128F5D1A068B0F5805F0D
:1021700001D12069B0B1206A411C21622168007838
:102180004860E08C401E0004000CE084E3D120682D
:10219000C16821F08001C1602068C16841F0400140
:1021A000C160D8E7206A0088C0F308004860206A50
:1021B000801C2062E5E74006CDD55006CBD5CA6825
:1021C000204622F04002CA6084F83D3000F0BEF89C
:1021D000C1E700004F2B000870B5040004D094F84C
:1021E0003D00002510B106E0012070BD84F83C5090
:1021F000204600F023F8242084F83D002068C168C0
:1022000021F40051C160204600F030FD20680169D2
:1022100021F4904101612068416921F02A01416166
:102220002068C16841F40051C1602564202084F811
:102230003D0084F83E00002070BD000010B586B05F
:10224000044614216846FEF73AF918492068884286
:1022500029D117480021026842F01002026000688C
:1022600000F01000059012481438026842F0010294
:102270000260006800F0010005904FF4C06000901B
:102280000220CDE901010320039007200490694654
:102290000848FEF773FD2520FEF7F0FE01221146E7
:1022A0002520FEF7F9FE06B010BD00000010014029
:1022B000443802400000024090F83E30202B0ED1FE
:1022C00059B152B190F83C30012B08D0012380F86D
:1022D0003C300023036300F04FBD01207047022013
:1022E0007047000030B400681549884225D1154870
:1022F00041880A0416D402464C0412784FF00003B9
:1023000004D50A2A0DD141F4004114E00D2A10D061
:10231000C1F30D040C4D491C89B22A554180C729CF
:1023200000D943800848012230BC06494438FFF7F1
:10233000C3BF41F480414180F4E730BC70470000E6
:10234000001001401E000020FC0300207047FEE743
:102350007FB500241F480094019402941C49039403
:10236000C0E90014012505618460057680F82040ED
:102370001949C0E90A140326C661C46080F83050C8
:102380004461FEF790FB08B1FEF72FFA0420CDE977
:102390000005694602940F48FEF72AFA08B1FEF7D5
:1023A00024FA052000900220019069460948FEF7B2
:1023B0001FFA08B1FEF719FA0820CDE900066946B0
:1023C0000448FEF715FA002801D0FEF70EFA7FBD8B
:1023D00000200140080200200100000F1CB5054943
:1023E0000120CDE900010023802203A1054802F06D
:1023F000A9F81CBD0C00002073746172745F7461D5
:10240000736B0000C5390008F0B587B01421684629
:10241000FEF755F81A4C0025206840F004002060B3
:102420002068184F00F004004FF4005605902A462B
:1024300031463846FEF792FD01200096CDE90105B0
:10244000694638460395FEF799FC206840F0800005
:102450002060206800F080000590206840F00100B6
:102460002060206800F001000590206840F0020024
:102470002060206800F00200059007B0F0BD000069
:10248000303802400008024010B596B000240F9486
:1024900010941194129413941C2168461494FEF71E
:1024A0000EF8202107A8FEF70AF831482F49C0E9A5
:1024B00000144FF4FA51C0E902410461446184619F
:1024C000FFF754F908B1FEF790F94FF480500F90E0
:1024D0000FA92748FFF7D8F908B1FEF786F9244875
:1024E000FFF7B1FC08B1FEF780F9139413A9204857
:1024F0001494FFF7FDF808B1FEF777F9602000901B
:1025000040F6C410CDE9010403940494059400221C
:10251000694617480694FFF730FC08B1FEF765F9E5
:102520000C2269461248FFF728FC08B1FEF75DF956
:102530000794089409944FF400500A94CDE90B4095
:1025400007A90B480E94FFF7A9F808B1FEF74DF95B
:102550000748FFF7C1FB00210548FFF7A3FC0C214A
:102560000348FFF79FFC16B010BD000000000140BB
:102570005002002010B58EB00024079408940994EE
:102580000A940B941C2168460C94FDF798FF33487D
:102590004FF0804101600721C0E901144FF47A71C6
:1025A000C0E903148461FFF7E1F808B1FEF71DF9F3
:1025B0004FF48050079007A92848FFF765F908B144
:1025C000FEF713F92548FFF73EFC08B1FEF70DF9B9
:1025D0000B940BA921480C94FFF78AF808B1FEF779
:1025E00004F9602000904FF4FA70CDE90104002254
:1025F00069461A480494FFF7C0FB08B1FEF7F5F8E6
:10260000042269461548FFF7B8FB08B1FEF7EDF85C
:10261000082269461148FFF7B0FB08B1FEF7E5F85C
:102620000C2269460D48FFF7A8FB08B1FEF7DDF85C
:102630000A48FFF751FB00210848FFF733FC04214B
:102640000648FFF72FFC08210448FFF72BFC0C215C
:102650000248FFF727FC0EB010BD000098020020D2
:1026600010B58CB024216846FDF729FF00241848D6
:10267000099416490A94C0E900144FF6FF71C0E9A5
:102680000241046184610320CDE900040120CDE909
:1026900002040F210491CDE90540CDE907416946C7
:1026A0000B48FFF75FF908B1FEF79FF8099409A9F5
:1026B00007480A94FFF71CF808B1FEF796F83C218A
:1026C0000348FFF70DFA0CB010BD000000040040F5
:1026D000E002002030B58BB024216846FDF7EFFE04
:1026E00000241A4D099418480A94C5E900044FF6CD
:1026F000FF70C5E902402C61AC610320CDE9000404
:102700000120CDE902040F210491CDE90540CDE976
:10271000074169462846FFF725F908B1FEF765F835
:10272000099409A909480A94FEF7E2FF08B1FEF7E7
:102730005CF80648FFF768F9286844623C210348C2
:10274000FFF7CEF90BB030BD000800402803002091
:1027500030B58BB024216846FDF7B1FE00241A4D38
:10276000099418480A94C5E900044FF6FF70C5E9BA
:1027700002402C61AC610320CDE900040120CDE9C9
:1027800002040F210491CDE90540CDE907416946D6
:102790002846FFF7E7F808B1FEF727F8099409A9DA
:1027A00009480A94FEF7A4FF08B1FEF71EF8064890
:1027B000FFF72AF9286844623C210348FFF790F9A3
:1027C0000BB030BD000C0040700300200E4810B567
:1027D0000C4901604FF4E1314160002181600C221D
:1027E000C160C0E904128161C161FFF7F5FC08B165
:1027F000FDF7FBFFBDE81040012204490248FFF746
:102800005BBD000000100140B80300201E00002046
:10281000FEE7FEE710B54FF0E020006901F0EAFEA8
:10282000012803D0BDE8104001F018BC10BD000025
:1028300030B593B030216846FDF741FE14210CA855
:10284000FDF73DFE1C480025016841F08051016004
:10285000006800F0805011901848016821F4404150
:1028600041F4004101600068022400F440401190EE
:10287000012003901020009406940490CDE90750A5
:10288000A820099004200A900B906846FEF742FDAC
:1028900008B1FDF7AAFF0CA90F2081E831000F95C0
:1028A00001210CA81095FEF729FC002801D0FDF7A6
:1028B0009CFF13B030BD0000403802400070004063
:1028C0000248016841F470010160704788ED00E042
:1028D00010B50448FFF74CF9BDE810400248FFF777
:1028E00047B9000050020020C4040020F0B502687F
:1028F0001D4B1E4C9F031E4D1E4E984207D0B842E2
:1029000005D0A04203D0A84201D0B04204D122F0A9
:10291000700C4A6842EA0C02984210D0B8420ED0BD
:10292000A0420CD0A8420AD0B04208D0124CA0421B
:1029300005D0124CA04202D0114CA04203D122F487
:102940004074CA6822434C6922F08002224302602C
:102950008A68C2620A688262984201D10969016389
:1029600001214161F0BD0000000001400004004071
:1029700000080040000C00400040014000440140BD
:102980000048014010B501F01F030121046A99407D
:102990008C430462016A9A401143016210BD10B574
:1029A000846842EA032224F47F440A43224382607B
:1029B00010BD826822F070020A4342F00701816074
:1029C0007047000030B5026A22F001020262026A1A
:1029D0004368846924F073050C682C4322F00205D7
:1029E0008A682A430A4DA8420BD122F00805CA681A
:1029F00023F440732A434D6922F004021D438B697E
:102A00002B434360846149684163026230BD00002A
:102A10000000014030B5026A22F010020262026A30
:102A2000436884690D6824F4E64444EA05248D680B
:102A300022F0200242EA05120B4DA8420ED1CD68C9
:102A400022F0800242EA05124D6923F4406343EA12
:102A500085038D6922F0400243EA85034360846167
:102A600049688163026230BD0000014030B5026AEE
:102A700022F480720262036A4268C46923F400731C
:102A800024F073050C682C438D6843EA05230C4D34
:102A9000A8420ED1CD6823F4006343EA05234D69B3
:102AA00022F4405242EA05128D6923F4806342EA1F
:102AB00005124260C4614968C163036230BD000011
:102AC0000000014030B5026A22F480520262046ABA
:102AD0004268C3690D6823F4E64343EA05238D6821
:102AE00024F4005444EA0534064DA84204D14D694B
:102AF00022F4804242EA85124260C361496801645F
:102B0000046230BD0000014010B5036A046A24F07D
:102B100001040462846924F0F00444EA021423F0FE
:102B20000A020A438461026210BD10B5036A23F0F1
:102B3000100303628369046A23F4704343EA023298
:102B400024F0A00343EA01118261016210BD10B5B7
:102B5000806B0021C185C184FFF708FA10BD0168B0
:102B60000C3151E8002F22F4907241E80023002B31
:102B7000F5D10168143151E8002F22F0010241E83B
:102B80000023002BF5D1016B012909D101680C311B
:102B900051E8002F22F0100241E80023002BF5D16C
:102BA000202180F83E1000210163704708B590F89D
:102BB0003E10222901D0022008BD82684FF48053C4
:102BC0009A4201D1016921B1816A9A421BD04AB16E
:102BD0000AE00268816A5268C2F308020A80816AC8
:102BE000891C08E0026972B10268526802F07F0233
:102BF0000A70816A491C8162C18D491E0904090C51
:102C0000C18503D019E002685268F1E70168CA681B
:102C100022F02002CA600168CA6822F48072CA6089
:102C200001684A6922F001024A61202180F83E10C1
:102C3000016B012903D0FFF755FB002008BD0021DF
:102C4000016301680C3151E8002F22F0100241E8C5
:102C50000023002BF5D101680A68D20602D50A6864
:102C600049680091818DFFF780F9E6E770B5044669
:102C700000680169E26821F4405111430161216952
:102C8000A068E26908436169114308432168CA6882
:102C900049F20C639A430243CA6020684169A26901
:102CA00021F440711143416131492068884202D0CA
:102CB0003049884202D1FEF7EBFA01E0FEF7D8FA7C
:102CC000E2690023192164253226B2F5004F6268BB
:102CD00028D0A0FB0101930F9200FDF72CFB0146C9
:102CE000B0FBF5F06FF01802504301EB800006EBEB
:102CF0000010B0FBF5F000F0F002B1FBF5F002EBD4
:102D00000012B1FBF5F06FF01803584301EB80009F
:102D100006EB0010B0FBF5F000F00F002168104446
:102D2000886070BDA0FB010192185B41FDF703FBB9
:102D30000146B0FBF5F00201B1FBF5F06FF01803AE
:102D4000584301EB800006EBC000B0FBF5F000F04B
:102D5000F80002EB4002B1FBF5F0584301EB8000B4
:102D600006EBC000B0FBF5F000F00700D6E700006E
:102D7000001001400014014081628285C28500215B
:102D80000164222280F83E2080F83C10016921B1C4
:102D90000168CA6842F48072CA6001684A6942F0F8
:102DA00001024A610068C16841F02001C160002051
:102DB000704700000148FFF7DBB80000B8030020AF
:102DC000FEE70907090E002804DB00F1E02080F887
:102DD0000014704700F00F0000F1E02080F8141D8F
:102DE0007047704710B504460420FEF749FC0148BF
:102DF000046010BD2400002038B5184C184A002388
:102E0000A042146806D944F480041460126802F4E5
:102E1000800205E044F400141460126802F4001209
:102E20000092114C0F4A62639463C2E90001402092
:102E3000C2E902030001C2E9040380019361C2E90F
:102E400007300320C2E90930D36210461363FDF74F
:102E5000FAFEBDE838400348FDF726BF0064024093
:102E600030380240E04D0020B80300202C4C2B4F9E
:102E70002C4E08202DED028B4FF00C086760E660A9
:102E8000C4E905080021204600F056F8A667264D43
:102E9000256700260420C4E9206004F16C000121AC
:102EA000834600F049F8DFF884902148C4F8DC90AC
:102EB000C4F8E400C4E93B6804F1D800022182466A
:102EC00000F03AF8B8461B4E4F46B6EE008A00BFF7
:102ED000D8F80000406A30602868406A706038683E
:102EE000406AB0600E4800F09FFD584600F09CFD1F
:102EF000504600F099FD84ED078A84ED228A84ED26
:102F00003D8A074800F0FEFC584600F0FBFC5046A6
:102F100000F0F8FC322000F06BF8D9E7E002002066
:102F2000C400002098020020280300207003002025
:102F3000500200200000002010B504462DED028B49
:102F40000170C0680068C06A9FED0E0A208284ED9F
:102F5000080A01F05DFB9FED0C8AA06004F164009B
:102F6000B0EE480A00F014F89FED080A84ED0E8ACE
:102F700084ED0F0A84ED100A84ED140ABDEC028B77
:102F800010BD00005015C43ACDCCCC3D000000006F
:102F900080ED000A9FED020A80ED010A70470000F3
:102FA00000000000FDF7EEFFFFF742FC1020FFF7E6
:102FB00019FFFFF729FAFFF7CBF9FFF765FAFFF7DB
:102FC000D9FAFFF74DFBFFF785FBFFF7C1FBFFF7D2
:102FD000FDFB4FF000610548FFF70EFF00F016F80B
:102FE000FFF7FCF900F024F8FEE70000B8640240A7
:102FF00010B5EFF3058111B16FF0050403E0002473
:1030000008B100F083FE204610BD0000EFF30580FC
:1030100010B16FF0050070470448016811B14FF01E
:10302000FF307047012101600020704788000020B8
:1030300010B5EFF3058010B16FF0050010BD084822
:103040000168012902D04FF0FF3010BD054A002170
:1030500082F8141D0221016000F008FF002010BD5D
:10306000880000200BE000E02DE9F041134C0F46F2
:103070000546E6682068001D00F014FD681C07D1B5
:1030800037B12168BDE8F0410D48091D00F05ABD77
:1030900020683544B5424560216805D2A06BBDE883
:1030A000F041091D00F036BD606B091D00F032FDD6
:1030B000A06A854200D2A562BDE8F08138000020F8
:1030C000FC0900202DE9F041054600F047FD2D4C9C
:1030D000A068401CA06020682B4F10B1606930B31D
:1030E0002BE02560A068012827D1002606EB86008A
:1030F00007EB800000F000FD761C382EF6D3234845
:1031000000F0FAFC2148143000F0F6FC1F4828308B
:1031100000F0F2FC1D483C3000F0EEFC1B48503043
:1031200000F0EAFC194860631430A06305E02068F1
:10313000E96AC06A884200D82560606A401C606203
:103140006864E86A2169884200D9206100EB800048
:1031500007EB8000291D00F0F5FC00F01FFD606901
:1031600000280CD02068E96AC06A884207D2084962
:103170004FF080500860BFF34F8FBFF36F8FBDE8F3
:10318000F0810000380000204C050020AC09002030
:1031900004ED00E038B500F0E1FC104C2068C8B93F
:1031A0000F4800F0A9FC0E48143000F0A5FC0C48B4
:1031B000E060143020610A4B0020F03B009003F1E6
:1031C000500210210A2000F05FFF206010B105A11D
:1031D00000F066FDBDE8384000F0E0BC740000205F
:1031E000000B0020546D72510000000030B4026CDE
:1031F0000B46002A0BD0C1681144C1608468A1420B
:1032000001D30168C16030BC1846FDF70BB930BC72
:1032100070472DE9F041856B174604460026026C85
:1032200082B1C7B1E068FDF7FDF8E168206C091ACA
:10323000E1602268914202D2A168081AE060022F80
:1032400016D017E02068A8B9A06801F04BFA06462E
:103250000020A0600EE06068FDF7E4F8216C606873
:1032600008446060A168884204D32068606001E07F
:1032700005B16D1E6D1CA5633046BDE8F08110B52B
:10328000044690F8590058B101280CD002280FD0FC
:10329000502080F31188BFF34F8FBFF36F8FFEE78D
:1032A000206B00F08FFC2046BDE8104000F08ABC87
:1032B00010BD000010484FF47051420706D0C01DE9
:1032C0000D4920F00700411AC1F570510B4A002347
:1032D0000144C2E900030839183A21F007011160DE
:1032E0004B600B600B1AC0E9001393604FF0004075
:1032F0005360506170470000E0110020A4000020DE
:10330000144E154CA6F29C474FF08058DFF84C90B5
:1033100012E000BF00F022FCF068C568281D00F034
:10332000C1FBA068401EA0606068401E606000F0A5
:1033300035FC2846FFF7A3FF60680028EAD138680B
:103340000128F9D9C9F80080BFF34F8FBFF36F8F01
:10335000F2E70000E80900203800002004ED00E05A
:1033600070B51D46049C51B1C4F80020C4E90F019A
:103370000121204600F0BCFE84F84C5070BD246052
:10338000F4E700002DE9F05F8846DDE90B9415466F
:10339000834691009A460A9EA522206BFDF787F886
:1033A0006FF00301206B01EB8501084420F0070753
:1033B000780707D0502080F31188BFF34F8FBFF3F9
:1033C0006F8FFEE70025B8F1000F0FD05FF000000F
:1033D000221818F8001082F8341018F8001011B1F3
:1033E000401C1028F4D384F8435001E084F8345092
:1033F000382E00D33726E662C4E91365201D00F09D
:1034000086FB04F1180000F082FB2461C6F138004D
:103410006462A061656584F8585052465946384642
:1034200000F05AFA2060B9F1000F01D0C9F800404D
:10343000BDE8F09F30B5114900E011460A688242AC
:10344000FBD34B685C18844203D140681844486041
:10345000084643681C18944209D1084C183C24685B
:10346000A24209D052681A4442600A681268026097
:10347000814200D0086030BD0460F9E7A40000205C
:1034800070B5002441600B4D0061914206D8D11AFD
:103490008269914206D2011D286907E09A4203D24F
:1034A000994201D3012403E0011DE86800F032FBDA
:1034B000204670BD7400002010B5044600F04EFB9D
:1034C000A06B28B15FF0000400F068FB204610BD3F
:1034D0000124F9E730B589B03C4D6EE0049800282E
:1034E00006DADDE90601059A90470498002864DBB6
:1034F000069C606910B1201D00F0D4FA03A800F00A
:10350000D7F8024604980A2857D2DFE800F00505EC
:10351000052D334A05052D3394F8280040F00100AD
:1035200084F828000599A069059B01442046FFF70F
:10353000A7FF68B3216A2046884794F8280040070F
:103540003BD5002000900598A16900234218194638
:10355000204601F0D1F9D8B9502080F31188BFF38B
:103560004F8FBFF36F8FFEE714F8280F20F0010094
:10357000207022E094F8280040F0010084F8280030
:103580000598A06128B1811813462046FFF778FFFF
:1035900013E0502080F31188BFF34F8FBFF36F8F7C
:1035A000FEE794F82800810703D4204600F00AFBC8
:1035B00003E020F0010084F82800002204A9286814
:1035C00000F0EAFE002889D109B030BD7400002067
:1035D0002DE9FC410F46054600F08CFC01A800F0E7
:1035E00067F80446019818B101F0F4F8BDE8FC81D1
:1035F000254EAFB130690068D0B30027291B3A4689
:10360000306800F061FB01F0E5F80028EED11F49B9
:103610004FF080500860BFF34F8FBFF36F8FE5E727
:10362000A542EBD801F0D6F8F0682746C068C46818
:10363000201D00F037FA94F82800410719D5A06939
:103640002B4641193A462046FFF71AFFA8B1002041
:103650000346014600902A46204601F04DF960B924
:10366000502080F31188BFF34F8FBFF36F8FFEE7B9
:1036700007E020F0010084F82800216A20468847EE
:10368000B4E70127BAE700007400002004ED00E071
:103690000648416B096829B1416BC968C968496826
:1036A000816270474FF0FF31FAE7000038000020D8
:1036B00070B5054600F0ACFF064E0446B068844283
:1036C00003D200F009F8012000E000202860204625
:1036D000B46070BD74000020F8B5194D20E0C068DA
:1036E000C4680668201D00F0DDF9216A204688477D
:1036F00094F82800400713D5A0693044B04206D999
:1037000024616060211DE86800F004FA08E00020F0
:103710000346014600903246204601F0EDF838B1EC
:10372000E86801680029DAD12969C5E90310F8BD04
:10373000502080F31188BFF34F8FBFF36F8FFEE7E8
:103740007400002008484068401C4FF0500080F38F
:10375000118804D0BFF34F8FBFF36F8FFEE7BFF325
:103760004F8FBFF36F8FFEE7AC000020074CE0687F
:10377000016841B1C0680021D0F80000FFF728FFC0
:10378000FFF7A8FEF3E701210020F7E7740000200F
:103790002DE9F041044600F0E1F994F9455004F1B7
:1037A000240609E0606A48B1304600F0DBFF08B14A
:1037B00000F022FB6D1E6DB2002DF3DC4FF0FF36E2
:1037C00084F8456000F0EAF900F0C8F994F9445033
:1037D00004F1100709E0206948B1384600F0C2FF43
:1037E00008B100F009FB6D1E6DB2002DF3DC84F80A
:1037F0004460BDE8F04100F0D1B900002DE9F0418E
:103800000546002700F076FB324E306808B9FFF716
:1038100051FD706905424ED1C5B3083568070ED019
:1038200005F00700C0F108000544680707D05020E4
:1038300080F31188BFF34F8FBFF36F8FFEE72DB377
:103840007068854237D82348183001460C6801E07B
:1038500020460C466168A94202D221680029F7D1AE
:1038600031688C4227D0076821680160606808379A
:10387000411B10290FD96019420708D0502080F34E
:103880001188BFF34F8FBFF36F8FFEE713E04160E6
:103890006560FFF7CFFD61687068401A7060B268BC
:1038A000904200D2B060706901430020C4E9000179
:1038B000F068401CF06000F08DFF780707D05020C2
:1038C00080F31188BFF34F8FBFF36F8FFEE7384649
:1038D000BDE8F0818C00002010B5031F4FF080740C
:1038E0001C601B1F21F001011960191F044B0B60A4
:1038F00014390A60091F6FF0020244380A6010BDD3
:103900004537000810B590ED070A0022048AB5EE8D
:10391000C00AC168F1EE10FA00EE904A09684369E6
:10392000F8EE600A26DD20EE800ABCEEC00A10EE3A
:10393000104AA4B273B1042B0ED0082B0ED00C6425
:10394000816969B104290FD0C068082900680FD0C7
:10395000026410BD4C63F3E78C63F1E7CC63EFE7DF
:10396000C0680068426310BDC0680068826310BD13
:10397000C26310BD20EEC00ABCEEC00A10EE104AB1
:10398000A4B273B1042B0ED0082B0ED00A64816947
:1039900069B104290FD0C068082900680FD00464F9
:1039A00010BD4A63F3E78A63F1E7CA63EFE7C068D3
:1039B0000068446310BDC0680068846310BDC463C0
:1039C00010BD00001CB500F0C9F80F490220CDE978
:1039D0000001002380220DA10F4800F0B3FD0A4929
:1039E0000120091DCDE90001002380220BA10D4813
:1039F00000F0A8FD04481038C06800F0ADF9BDE83B
:103A00001C4000F0CBB8000010000020696E666F0B
:103A10005461736B000000006D2E0008434D445448
:103A200061736B005907000870B5044600F0F0FDA3
:103A300002461A48826063681968496AD4ED080A28
:103A400000EE101AB8EEC00A20EE800ADFED140A6C
:103A500080ED000AA568521B00EE102AB8EE400A5D
:103A600080EE201A80ED011A6180D4ED0C0A90EDF1
:103A7000000A002170EE800AC4ED0C0AD4ED090A98
:103A8000C4ED0B0AD0ED010A80EE201A84ED091A6C
:103A90001A6851628068A06070BD0000B800002004
:103AA00000007A44D0E9013201699A60D0E901232B
:103AB0005A604A68824201D182684A6000220261EB
:103AC0000868401E0860086870470000034B0360E8
:103AD00003F15C000860802010607047280B002014
:103AE000044B036003F15C0008604FF480701060C9
:103AF00070470000840D002000F108014FF0FF32F4
:103B0000C0E90112C160016100210160704700211C
:103B10000161704730B50B685A1C02D000F10802F1
:103B200002E0026904E02246546825689D42FAD901
:103B300053684B6099608A60516008610168491C54
:103B4000016030BD42684A6093688B609368596039
:103B5000916008610168491C01607047502080F342
:103B60001188BFF34F8FBFF36F8F0A494868401C1D
:103B7000486001280CD10848006810F0FF0F07D0FA
:103B8000502080F31188BFF34F8FBFF36F8FFEE794
:103B900070470000AC00002004ED00E008494868D0
:103BA00028B1401E486001D180F311887047502031
:103BB00080F31188BFF34F8FBFF36F8FFEE70000D4
:103BC000AC00002070B500282AD0164DA0F10804E2
:103BD00060686969084207D1502080F31188BFF3FB
:103BE0004F8FBFF36F8FFEE722683AB1502080F30A
:103BF0001188BFF34F8FBFF36F8FFEE7884360607C
:103C000000F078F960686968084468602046FFF74A
:103C100011FC2869401C2861BDE8704000F0DABD45
:103C200070BD00008C0000204FF0E02000210161F9
:103C3000816105494FF47A720968B1FBF2F1491EBE
:103C400041610721016170473400002010B5FCF785
:103C50004DFB114910280ED300F1E02090F8F0033D
:103C60000A78904207D2502080F31188BFF34F8F1B
:103C7000BFF36F8FFEE709480068896800F4E060D1
:103C8000884207D9502080F31188BFF34F8FBFF3CC
:103C90006F8FFEE710BD0000AC0000200CED00E0CF
:103CA00010B5084B002200BF53F832401CB1521C23
:103CB000082AF9D310BD43F8321003EBC201486063
:103CC00010BD00000C05002070B515460E460446D8
:103CD000FFF744FF94F944100020491C01D184F8F7
:103CE000440094F94510491C01D184F84500FFF7C0
:103CF00055FFA06B28B92A46314604F1240000F094
:103D000099F82046BDE87040FFF742BD10B50200AB
:103D100014D00F48006B38B1502080F31188BFF3E6
:103D20004F8FBFF36F8FFEE700F0E4F800211046DD
:103D3000FFF79AF900F04EFD002807D105494FF032
:103D400080500860BFF34F8FBFF36F8F10BD00002E
:103D50003800002004ED00E070B50546FFF7FEFED8
:103D60001E4C05B92568281DFFF79CFEA86A18B1EE
:103D700005F11800FFF796FE606A401C606220683B
:103D8000854207D1291D1648FFF7DCFE6068401CFC
:103D9000606007E0A068401EA0602846FFF76FFA49
:103DA000FFF776FCFFF7FAFE6069002814D0206860
:103DB000854211D1206B38B1502080F31188BFF3B8
:103DC0004F8FBFF36F8FFEE706494FF080500860BA
:103DD000BFF34F8FBFF36F8F70BD0000380000201E
:103DE000E809002004ED00E002490A6A0260C9689F
:103DF000416070473800002001490120C8617047C8
:103E00003800002010B50C4650B109490968183136
:103E1000FFF780FE2046BDE810400121FFF724B9DE
:103E2000502080F31188BFF34F8FBFF36F8FFEE7F1
:103E30003800002070B514460D4668B10A4909687B
:103E40001831FFF77FFE0CB14FF0FF3521462846B1
:103E5000BDE87040FFF708B9502080F31188BFF328
:103E60004F8FBFF36F8FFEE73800002030B587B06B
:103E70000024039405AA04A903A80494FFF726FECE
:103E8000DDE903010094CDE90110002315A11748D5
:103E9000059A00F084FB164D0028E8621FD000F060
:103EA000FBFC012809D0401C19D1502080F3118857
:103EB000BFF34F8FBFF36F8FFEE7502080F3118861
:103EC000BFF34F8FBFF36F8F4FF0FF30A862012019
:103ED0006861EC6007B0BDE8304000F045B807B05D
:103EE00030BD000049444C4500000000013300088B
:103EF000380000200248016B491C01637047000034
:103F000038000020164810B5016B11B10121C161C4
:103F100010BD0021C1610169124A01E0B9B1491E19
:103F200001EB810352F82330002BF7D001EB810322
:103F300002EB830202F1080453685B685360A342FA
:103F400001D15B685360DA680260016110BD5020E6
:103F500080F31188BFF34F8FBFF36F8FFEE7000030
:103F6000380000204C0500201CB537480168374A4E
:103F7000914207D1502080F31188BFF34F8FBFF3D8
:103F80006F8FFEE700683149491E884207D15020F3
:103F900080F31188BFF34F8FBFF36F8FFEE72C497B
:103FA00008780190FF20087008788DF800009DF8CF
:103FB00000009DF8002000F0F000904207D0502053
:103FC00080F31188BFF34F8FBFF36F8FFEE79DF82B
:103FD0000000204C00F0500020700720A06005E099
:103FE0009DF8002052008DF80020401E9DF8002012
:103FF0001206F5D4A060032807D0502080F3118862
:10400000BFF34F8FBFF36F8FFEE74FF44070A06098
:10401000019808700C482030016841F4700101607B
:10402000016841F070410160FFF7FEFD0020606013
:10403000FCF724F90848016841F040410160FCF7B1
:1040400009F900201CBD000000ED00E071C20F4125
:1040500000E400E0AC00002034EF00E010B5502098
:1040600080F31188BFF34F8FBFF36F8F00F0D6FA44
:1040700018B104494FF080500860002080F3118887
:1040800010BD000004ED00E038B5049D18B153B137
:10409000CAB181B120E0502080F31188BFF34F8F67
:1040A000BFF36F8FFEE7502080F31188BFF34F8F6F
:1040B000BFF36F8FFEE7502080F31188BFF34F8F5F
:1040C000BFF36F8FFEE739B1502080F31188BFF343
:1040D0004F8FBFF36F8FFEE750241C46012384F8F7
:1040E00046302B460094FFF73BF9204638BD0000D0
:1040F00070B50D46040025D0FFF730FDD4E90F2040
:10410000216802FB0011A1600021A16321686160A8
:104110000A46D4E90F01401E00FB0121E16021465F
:104120004FF0FF3001F8440F487004F110008DB1DA
:10413000FFF7E2FC04F12400FFF7DEFCFFF72EFDA1
:10414000012070BD502080F31188BFF34F8FBFF363
:104150006F8FFEE721690029F0D000F003FB0028F3
:10416000ECD004494FF080500860BFF34F8FBFF38D
:104170006F8FE3E704ED00E02DE9FF4782B01D46B5
:104180008A464FF00008040003D0BAF1000F08D0AF
:1041900011E0502080F31188BFF34F8FBFF36F8F72
:1041A000FEE7206C38B1502080F31188BFF34F8FA9
:1041B000BFF36F8FFEE7022D0AD1E06B012807D015
:1041C000502080F31188BFF34F8FBFF36F8FFEE74E
:1041D00000F010FA3F4F4FF000094FF0805648B9F9
:1041E000049838B1502080F31188BFF34F8FBFF38C
:1041F0006F8FFEE7FFF7B2FCA06BE16B884207D33D
:10420000022D05D00498D0B1B8F1000F1AD01EE0ED
:104210002A4651462046FEF7FCFF616A19B104F1B7
:10422000240000F09FFA20B13E60BFF34F8FBFF330
:104230006F8FFFF7B3FC012006B0BDE8F087FFF7F2
:10424000ADFC22E06846FFF7CFFD4FF00108FFF715
:10425000A5FCFFF74FFEFFF781FC94F94400401CDA
:1042600001D184F8449094F94500401C01D184F8B0
:104270004590FFF793FC04A9684600F029F930B196
:104280002046FFF785FA00F0A5FA0020D4E7FFF7F3
:1042900065FCA06BE16B884213D1FFF77FFC04F152
:1042A00010000499FFF7AEFD2046FFF771FA00F009
:1042B00091FA00289ED13E60BFF34F8FBFF36F8FFE
:1042C00098E7FFF76BFC2046FFF762FA00F082FAEE
:1042D00090E7000004ED00E02DE9F0471F4690460E
:1042E0008946040003D0B9F1000F08D011E0502036
:1042F00080F31188BFF34F8FBFF36F8FFEE7206C01
:1043000038B1502080F31188BFF34F8FBFF36F8F08
:10431000FEE7022F0AD1E06B012807D0502080F37E
:104320001188BFF34F8FBFF36F8FFEE7FFF78EFC4F
:104330005020EFF3118680F31188BFF34F8FBFF346
:104340006F8FA06BE16B884206D3022F04D0002050
:1043500086F31188BDE8F08794F94550A06B3A4682
:1043600049462046FEF755FF681C04D06D1C84F8B2
:1043700045500120ECE7606A0028FAD004F12400DF
:1043800000F0F0F90028F4D0B8F1000FF1D00121CD
:10439000C8F80010EDE700002DE9F747002683B0CC
:1043A0008A46040003D0BAF1000F08D011E0502073
:1043B00080F31188BFF34F8FBFF36F8FFEE7206C40
:1043C00038B1502080F31188BFF34F8FBFF36F8F48
:1043D000FEE700F00FF9DFF8F4804FF000094FF02E
:1043E000805748B9059838B1502080F31188BFF341
:1043F0004F8FBFF36F8FFEE7FFF7B0FBA56BC5B123
:1044000051462046FEF7F2FE6D1EA563206950B1AD
:1044100004F1100000F0A6F928B1C8F80070BFF34D
:104420004F8FBFF36F8FFFF7B9FB012006B0BDE8D8
:10443000F087059808B11EB106E0FFF7AFFB27E053
:104440006846FFF7D1FC0126FFF7A8FBFFF752FDF6
:10445000FFF784FB94F94400401C01D184F8449098
:1044600094F94500401C01D184F84590FFF796FB74
:1044700005A9684600F02CF8002820460AD0FFF76E
:1044800087F900F0A7F92046FFF716F80028B3D007
:104490000020CBE7FFF710F890B104F12400059954
:1044A000FFF7B0FC2046FFF773F900F093F90028FE
:1044B000A2D1C8F80070BFF34F8FBFF36F8F9BE797
:1044C0002046FFF765F900F085F995E704ED00E077
:1044D0002DE9F0410C46050011D0C4B1FFF73EFBB9
:1044E000174BDA686E682068911B471C17D02F683D
:1044F0001B6A9F4219D0964217D8012410E0502021
:1045000080F31188BFF34F8FBFF36F8FFEE750200A
:1045100080F31188BFF34F8FBFF36F8FFEE7002446
:10452000FFF73CFB2046BDE8F081884205D9401AE0
:1045300020602846FFF758FCF1E700202060DCE708
:10454000380000202DE9FF5F8346DDE90E8799469C
:1045500016468A469000FFF751F905001CD05C20F2
:10456000FFF74CF9040014D00020256384F85900AB
:10457000CDE90240CDE900874B46324651465846C8
:10458000FEF700FF2046FEF79DFD012004B0BDE8C8
:10459000F09F2846FFF716FB4FF0FF30F6E7F0B527
:1045A00085B0DDE90B640A9DA6B1DCB15C270097FC
:1045B0002663022684F85960002604AFCDE902463E
:1045C000CDE90057FEF7DEFE2046FEF77BFD04989E
:1045D00005B0F0BD502080F31188BFF34F8FBFF3BB
:1045E0006F8FFEE7502080F31188BFF34F8FBFF32A
:1045F0006F8FFEE70548416919B1006B18B10020C3
:1046000070470120704702207047000038000020EA
:104610000148C06870470000380000202DE9F041D3
:104620002E4C0027206B28B1A069401CA0613846A1
:10463000BDE8F081E668761CE66013D1606B006827
:1046400038B1502080F31188BFF34F8FBFF36F8FC5
:10465000FEE7606BA16B6163A063206A401C20626F
:10466000FFF716F8A06ADFF87880864209D3606BFE
:104670000068A0B1606BC068C5686868864211D2E6
:10468000A0622068C06A00EB800158F82100012870
:1046900000D90127E0690028C9D00127C7E74FF0FA
:1046A000FF30EDE7281DFFF7FDF9A86A18B105F105
:1046B0001800FFF7F7F9E86A2169884200D92061FC
:1046C00000EB800108EB8100291DFFF73BFAE86A47
:1046D0002168C96A8842CAD30127C8E73800002088
:1046E0004C05002070B504004FF0000133D01B4D85
:1046F0002868844207D0502080F31188BFF34F8F81
:10470000BFF36F8FFEE7206D38B1401E2065E36C6C
:10471000E26A9A421FD040B11DE0502080F3118818
:10472000BFF34F8FBFF36F8FFEE7201DFFF7BAF97E
:10473000E06CE062C0F13800A061E06A296988425B
:1047400000D92861064900EB800001EB8000211DA3
:10475000FFF7F8F90121084670BD0000380000207D
:104760004C05002070B5C068C46854B104F118004D
:104770000646FFF797F9144D286B50B131461348A0
:1047800015E0502080F31188BFF34F8FBFF36F8F78
:10479000FEE7201DFFF786F9E06A2969884200D903
:1047A00028610B4900EB800001EB8000211DFFF721
:1047B000C9F9E06A2968C96A884202D90120E8611A
:1047C00070BD002070BD000038000020D40900201A
:1047D0004C0500202DE9F0472C4D00242746286B7E
:1047E00038B1FFF7BBF9286B401E2863286B40B136
:1047F00046E0502080F31188BFF34F8FBFF36F8FD7
:10480000FEE7A968224E0120D1B3A6F59169804642
:104810003068E0B1F068C46804F11800FFF742F9AD
:10482000201DFFF73FF9E06A2969884200D9286115
:1048300000EB800109EB8100211DFFF783F9E06A9D
:104840002968C96A8842E3D3C5F81C80E0E70CB147
:10485000FEF71EFFAC694CB14FEA0806FFF7DEFE1B
:1048600000B1EE61641EF9D10020A861E86938B199
:104870000849012738070860BFF34F8FBFF36F8FD8
:10488000FFF78CF93846BDE8F087000038000020BB
:10489000D409002004ED00E010B586B0FEF77AFCE4
:1048A000114C2068B8B100200390049005AA04A917
:1048B00003A8FFF715F9DDE9032102208DE80700C1
:1048C00000230AA10B48059AFFF769FE606010B14A
:1048D00006B0012010BD502080F31188BFF34F8F28
:1048E000BFF36F8FFEE7000074000020546D72204C
:1048F000537663006D3700082DE9FF411E461346CD
:1049000002000A9D4FF0000016D0144C2768002FBB
:104910000FD0CDE900130292062917DAFFF76AFEDD
:1049200002284FF000030FD0002269462068FFF7ED
:1049300023FC04B0BDE8F081502080F31188BFF360
:104940004F8FBFF36F8FFEE72A46EEE70023324614
:1049500069463846FFF7C0FCEBE700007400002012
:104960004FF04070E1EE100A704700061016000686
:1049700010160000000000000000010203040607FA
:10498000080900000000010203040000AC4900080F
:1049900000000020C4000000D0010008704A000898
:1049A000C4000020DC530000EC01000800000000FF
:1049B00000000000000000000000000000000000F7
:1049C00000000000000000000000000000000000E7
:1049D00000000000010000001000000000000000C6
:1049E0000024F400000000000000000000000000AF
:1049F00000000000000000000000000000000000B7
:104A000000000000000000000000000000000000A6
:104A10000000000000000000000000000000000096
:104A20000000000000000000000000000000000086
:104A30000000000000000000000000000000000076
:104A40000000000000000000000000000000000066
:104A5000000000000000000000000000AAAAAAAAAE
:104A60000000000000000000000000000000000046
:040000050800019559
:00000001FF
